:02000000FF28D7
:0E0006008312031321088A00200882000800DC
:1000140003208A110A128000840AA00A0319A10A83
:08002400F003031D0A28080087
:10002C00233083120313A0000130A100263084007A
:10003C003030F0000A207F30F00080302306700250
:10004C00031D2A282208FF3C0318A228FF30870032
:10005C002208F0002308F100F00DF10D701070086B
:10006C00263E84000008860000302506031D40282B
:10007C0001302406031D5B288815881400302306E4
:10008C00031D4A28143022060319582880302306F1
:10009C00F00080307002031D552814302202031C1E
:1000AC0058285A28881008158F2800302506031D5B
:1000BC00612802302406031D7C2808140816003021
:1000CC002306031D6B280C30220603197928803077
:1000DC002306F00080307002031D76280C302202BB
:1000EC00031C79287B28081288168F2800302506D7
:1000FC00031D822803302406031D862888148F28AC
:10010C0000302506031D8C2804302406031D8F287F
:10011C0008160B30FB002630FC005D30FD00FD0B9B
:10012C009528FC0B9528FB0B95280000000001304E
:10013C00A202031CA303212800302506031DA828B6
:10014C0001302406031DAE28881108118810B92827
:10015C0000302506031DB42802302406031DB928DF
:08016C000810881208120800B7
:10017400173083120313A2000030A3000130A4003F
:100184000030A50016200F30A2000030A30002307A
:10019400A4000030A5001620051CD128D228BA28B6
:0201A400080051
:1001A60083120313051CFA2808148816051DDC287B
:1001B600D9280810881288150330A2000030A30041
:1001C6000330A4000030A500162088100815051D70
:1001D600ED28EA2888110330A2000030A30004307D
:1001E600A4000030A500162008110812FD280518E5
:0801F600FD28BA20D3280800FF
:1001FE0083160313860183128601831688018312E8
:10020E0088018316071087100711871183120710B4
:10021E008710071187118316051607309F000514E6
:10022E00851405158312051085100511051E20294C
:08023E001D29BA20D32022295A
:100246000034003401340034023400340334003402
:1002560004340034053400340634003407340034E2
:1002660008340034093400341034003411340034B6
:10027600123400341334003414340034153400348A
:10028600163400341734003418340034193400346A
:100296002034003421340034223400342334003432
:02400E004A2F37
:00000001FF
